:03000000020800F3
:0C080000787FE4F6D8FD75810A020847F5
:0708D300010A010208000008
:1008BB0075890A758810758C06758A0675A882E588
:0808CB000AF4F5A0C2B280FEA0
:03000B0002088C5C
:10088C00C0E0C0D00509E50970020508B4D01BE52D
:10089C0008B40716750800750900E50A25E0F50A85
:0F08AC007003750A01E50AF4F5A0D0D0D0E03250
:10080C000208BBE493A3F8E493A34003F68001F23F
:10081C0008DFF48029E493A3F85407240CC8C333ED
:10082C00C4540F4420C8834004F456800146F6DFBC
:10083C00E4800B01020408102040809008D3E47E71
:10084C00019360BCA3FF543F30E509541FFEE493B1
:10085C00A360010ECF54C025E060A840B8E493A378
:10086C00FAE493A3F8E493A3C8C582C8CAC583CAA3
:10087C00F0A3C8C582C8CAC583CADFE9DEE780BE5B
:0108DA00001D
:00000001FF
