:030000000208955E
:0C089500787FE4F6D8FD75811B0208DCBA
:1009B8004E3136313231363338000D0A0077726FD6
:0F09C8006E670D0A00636F72726563740D0A002B
:040A040002120000DA
:0509FF001209F080FE6A
:100990008B148A158916AB14AA15A9161209D760EB
:1009A000160516E5167002051514F91209D7F59902
:0809B0003099FDC29980DF229D
:0F09F000759850758920758DE6D28E75A8902266
:03002300020800D0
:10080000C0E0C0F0C083C082C0D075D000C000C0BE
:1008100001C002C003C004C005C006C0073098FD77
:10082000C298859911E511F4F5A00513E51370023E
:100830000512142408F8A611E51364094512703A4C
:10084000F512F5137517FF7518097519B8F51A75AE
:100850001B09FB7A007908120921EF7BFF7A0979DD
:10086000C2600B1209907BFF7A0979C580091209D1
:10087000907BFF7A0979CD120990D007D006D00578
:10088000D004D003D002D001D000D0D0D082D08309
:05089000D0F0D0E032C1
:1008A1000209FFE493A3F8E493A34003F68001F265
:1008B10008DFF48029E493A3F85407240CC8C33358
:1008C100C4540F4420C8834004F456800146F6DF27
:1008D100E4800B0102040810204080900A04E47EA9
:1008E100019360BCA3FF543F30E509541FFEE4931C
:1008F100A360010ECF54C025E060A840B8E493A3E3
:10090100FAE493A3F8E493A3C8C582C8CAC583CA0D
:10091100F0A3C8C582C8CAC583CADFE9DEE780BEC5
:010A080000ED
:1009D700BB010689828A83E0225002E722BBFE021E
:0909E700E32289828A83E4932251
:100921008B148A158916AB17AA18A9191209D7FEB3
:10093100AB14AA15A9161209D7FF6E702BEF600D23
:10094100E51B151B7002151A14451A70037F00224E
:1009510074012516F516E43515F51574012519F5FB
:1009610019E43518F51880BEAB14AA15A916120999
:10097100D7FDD3EE6480F8ED64809840037F0122B7
:0F098100AB17AA18A9191209D7FFC3ED9FFF22C0
:00000001FF
