:030000000208BA39
:0C08BA00787FE4F6D8FD75810F0208700D
:10088B00010204080C06030901030206040C080903
:08089B0009080C040602030128
:10087000D2AFD2A8D2AAD288D28A7508037509E865
:0B088000750C00750D0112080080FBD4
:030003000208C62A
:0708C600630DFF630CFF321C
:0300130002084F91
:10084F00C0E0C0D0E509B4E80DE508B403087508A9
:10085F000075096480067508037509E8D0D0D0E0EB
:01086F003256
:10080000E50D6401450C7023F50EF50F7493250F6B
:10081000F58274081208A3050FE50F7002050EC3D8
:100820009408E50E6480948040E222E4F50EF50F12
:10083000749B250FF58274081208A3050FE50F704D
:0E08400002050EC39408E50E6480948040E229
:01084E002287
:0C08A300350EF583E493F590AF09AE0824
:0B08AF00EF1FAC0670011E4C70F6221B
:00000001FF
