:030000000209945E
:0C099400787FE4F6D8FD75810A020800A7
:0A09AB004E31363132313633380058
:100800007F3812097D7F0F12097DE4FDFC7F0612FF
:100810000980E4FDFC7F01120980E4FDFC7F801269
:1008200009807BFF7A0979AB12093DE4FDFC7F402A
:100830001209807D017C00E4FF120980E4FDFC7F49
:10084000411209807D017C007F0A120980E4FDFCD1
:100850007F421209807D017C007F0A120980E4FD3D
:10086000FC7F431209807D017C00E4FF120980E4D3
:10087000FDFC7F441209807D017C007F11120980FC
:10088000E4FDFC7F451209807D017C007F0E12098A
:1008900080E4FDFC7F461209807D017C00E4FF12AC
:1008A0000980E4FDFC7FC01209807D017C00E4FF2B
:1008B000120980E4FDFC7F481209807D017C00E480
:1008C000FF120980E4FDFC7F491209807D017C0054
:1008D0007F0A120980E4FDFC7F4A1209807D017CB9
:1008E000007F1F120980E4FDFC7F4B1209807D010F
:1008F0007C007F1F120980E4FDFC7F4C1209807D83
:10090000017C007F0E120980E4FDFC7F4D120980FE
:100910007D017C007F04120980E4FDFC7F4E1209FA
:10092000807D017C00E4FF120980E4FDFC7FC112A0
:0D09300009807D017C00E4FF12098080FE3B
:10093D008B088A09890AAB08AA09A90A120964FF5A
:10094D0060147D017C001209807401250AF50AE40A
:07095D003509F50980E022D5
:03097D00E4FDFC9A
:100980008F90EC4D24FF92B7D2B67F647E0012099F
:04099000A0C2B62229
:0B09A000EF1FAC0670011E4C70F62229
:10096400BB010689828A83E0225002E722BBFE0291
:09097400E32289828A83E49322C4
:00000001FF
