:030000000208747F
:0C087400787FE4F6D8FD7581070208804B
:0C088000C288D2A8D2AFC2B4D2B480FEAD
:03000300020800F0
:10080000C0E0C0D0C2B5E590D394E3400575A0FF29
:100810008057E590D394C7400575A07F804BE59045
:10082000D394AA400575A03F803FE590D3948E40B5
:100830000575A01F8033E590D39471400575A00F16
:100840008027E590D39455400575A007801BE5905F
:10085000D39438400575A003800FE590D3941C40D5
:100860000575A001800375A000D2B5C2B4D2B4D082
:04087000D0D0E032D2
:00000001FF
